{
  "contractName": "MyCoin",
  "abi": [
    {
      "constant": true,
      "inputs": [],
      "name": "name",
      "outputs": [
        {
          "name": "",
          "type": "string"
        }
      ],
      "payable": false,
      "stateMutability": "view",
      "type": "function"
    },
    {
      "constant": true,
      "inputs": [],
      "name": "totalSupply",
      "outputs": [
        {
          "name": "",
          "type": "uint256"
        }
      ],
      "payable": false,
      "stateMutability": "view",
      "type": "function"
    },
    {
      "constant": true,
      "inputs": [],
      "name": "decimal",
      "outputs": [
        {
          "name": "",
          "type": "uint8"
        }
      ],
      "payable": false,
      "stateMutability": "view",
      "type": "function"
    },
    {
      "constant": true,
      "inputs": [],
      "name": "symbol",
      "outputs": [
        {
          "name": "",
          "type": "string"
        }
      ],
      "payable": false,
      "stateMutability": "view",
      "type": "function"
    },
    {
      "constant": true,
      "inputs": [
        {
          "name": "",
          "type": "address"
        }
      ],
      "name": "balance",
      "outputs": [
        {
          "name": "",
          "type": "uint256"
        }
      ],
      "payable": false,
      "stateMutability": "view",
      "type": "function"
    },
    {
      "inputs": [
        {
          "name": "coinName",
          "type": "string"
        },
        {
          "name": "sym",
          "type": "string"
        },
        {
          "name": "decimalPoint",
          "type": "uint8"
        },
        {
          "name": "initSupply",
          "type": "uint256"
        }
      ],
      "payable": false,
      "stateMutability": "nonpayable",
      "type": "constructor"
    },
    {
      "constant": false,
      "inputs": [
        {
          "name": "_to",
          "type": "address"
        },
        {
          "name": "_value",
          "type": "uint256"
        }
      ],
      "name": "transfer",
      "outputs": [],
      "payable": false,
      "stateMutability": "nonpayable",
      "type": "function"
    },
    {
      "constant": false,
      "inputs": [
        {
          "name": "_value",
          "type": "uint256"
        }
      ],
      "name": "burn",
      "outputs": [
        {
          "name": "",
          "type": "bool"
        }
      ],
      "payable": false,
      "stateMutability": "nonpayable",
      "type": "function"
    },
    {
      "constant": true,
      "inputs": [],
      "name": "checkBalance",
      "outputs": [
        {
          "name": "",
          "type": "uint256"
        }
      ],
      "payable": false,
      "stateMutability": "view",
      "type": "function"
    },
    {
      "constant": true,
      "inputs": [],
      "name": "currencyDetails",
      "outputs": [
        {
          "name": "coinName",
          "type": "string"
        },
        {
          "name": "sym",
          "type": "string"
        },
        {
          "name": "decimalPoint",
          "type": "uint8"
        },
        {
          "name": "totSupply",
          "type": "uint256"
        }
      ],
      "payable": false,
      "stateMutability": "view",
      "type": "function"
    }
  ],
  "bytecode": "0x6060604052341561000f57600080fd5b604051610adf380380610adf83398101604052808051820191906020018051820191906020018051906020019091908051906020019091905050836000908051906020019061005f9291906100e6565b5082600190805190602001906100769291906100e6565b5081600260006101000a81548160ff021916908360ff1602179055508060038190555080600460003373ffffffffffffffffffffffffffffffffffffffff1673ffffffffffffffffffffffffffffffffffffffff168152602001908152602001600020819055505050505061018b565b828054600181600116156101000203166002900490600052602060002090601f016020900481019282601f1061012757805160ff1916838001178555610155565b82800160010185558215610155579182015b82811115610154578251825591602001919060010190610139565b5b5090506101629190610166565b5090565b61018891905b8082111561018457600081600090555060010161016c565b5090565b90565b6109458061019a6000396000f300606060405260043610610099576000357c0100000000000000000000000000000000000000000000000000000000900463ffffffff16806306fdde031461009e57806318160ddd1461012c57806342966c68146101555780634883b5441461019057806376809ce31461029e57806395d89b41146102cd578063a9059cbb1461035b578063c71daccb1461039d578063e3d670d7146103c6575b600080fd5b34156100a957600080fd5b6100b1610413565b6040518080602001828103825283818151815260200191508051906020019080838360005b838110156100f15780820151818401526020810190506100d6565b50505050905090810190601f16801561011e5780820380516001836020036101000a031916815260200191505b509250505060405180910390f35b341561013757600080fd5b61013f6104b1565b6040518082815260200191505060405180910390f35b341561016057600080fd5b61017660048080359060200190919050506104b7565b604051808215151515815260200191505060405180910390f35b341561019b57600080fd5b6101a3610567565b6040518080602001806020018560ff1660ff168152602001848152602001838103835287818151815260200191508051906020019080838360005b838110156101f95780820151818401526020810190506101de565b50505050905090810190601f1680156102265780820380516001836020036101000a031916815260200191505b50838103825286818151815260200191508051906020019080838360005b8381101561025f578082015181840152602081019050610244565b50505050905090810190601f16801561028c5780820380516001836020036101000a031916815260200191505b50965050505050505060405180910390f35b34156102a957600080fd5b6102b16106d1565b604051808260ff1660ff16815260200191505060405180910390f35b34156102d857600080fd5b6102e06106e4565b6040518080602001828103825283818151815260200191508051906020019080838360005b83811015610320578082015181840152602081019050610305565b50505050905090810190601f16801561034d5780820380516001836020036101000a031916815260200191505b509250505060405180910390f35b341561036657600080fd5b61039b600480803573ffffffffffffffffffffffffffffffffffffffff16906020019091908035906020019091905050610782565b005b34156103a857600080fd5b6103b06108a6565b6040518082815260200191505060405180910390f35b34156103d157600080fd5b6103fd600480803573ffffffffffffffffffffffffffffffffffffffff169060200190919050506108ed565b6040518082815260200191505060405180910390f35b60008054600181600116156101000203166002900480601f0160208091040260200160405190810160405280929190818152602001828054600181600116156101000203166002900480156104a95780601f1061047e576101008083540402835291602001916104a9565b820191906000526020600020905b81548152906001019060200180831161048c57829003601f168201915b505050505081565b60035481565b600081600460003373ffffffffffffffffffffffffffffffffffffffff1673ffffffffffffffffffffffffffffffffffffffff16815260200190815260200160002054101561050557600080fd5b81600460003373ffffffffffffffffffffffffffffffffffffffff1673ffffffffffffffffffffffffffffffffffffffff1681526020019081526020016000206000828254039250508190555081600360008282540392505081905550919050565b61056f610905565b610577610905565b60008060008054600181600116156101000203166002900480601f0160208091040260200160405190810160405280929190818152602001828054600181600116156101000203166002900480156106105780601f106105e557610100808354040283529160200191610610565b820191906000526020600020905b8154815290600101906020018083116105f357829003601f168201915b5050505050935060018054600181600116156101000203166002900480601f0160208091040260200160405190810160405280929190818152602001828054600181600116156101000203166002900480156106ad5780601f10610682576101008083540402835291602001916106ad565b820191906000526020600020905b81548152906001019060200180831161069057829003601f168201915b50505050509250600260009054906101000a900460ff169150600354905090919293565b600260009054906101000a900460ff1681565b60018054600181600116156101000203166002900480601f01602080910402602001604051908101604052809291908181526020018280546001816001161561010002031660029004801561077a5780601f1061074f5761010080835404028352916020019161077a565b820191906000526020600020905b81548152906001019060200180831161075d57829003601f168201915b505050505081565b600073ffffffffffffffffffffffffffffffffffffffff168273ffffffffffffffffffffffffffffffffffffffff1614156107bc57600080fd5b80600460003373ffffffffffffffffffffffffffffffffffffffff1673ffffffffffffffffffffffffffffffffffffffff16815260200190815260200160002054101561080857600080fd5b80600460003373ffffffffffffffffffffffffffffffffffffffff1673ffffffffffffffffffffffffffffffffffffffff1681526020019081526020016000206000828254039250508190555080600460008473ffffffffffffffffffffffffffffffffffffffff1673ffffffffffffffffffffffffffffffffffffffff168152602001908152602001600020600082825401925050819055505050565b6000600460003373ffffffffffffffffffffffffffffffffffffffff1673ffffffffffffffffffffffffffffffffffffffff16815260200190815260200160002054905090565b60046020528060005260406000206000915090505481565b6020604051908101604052806000815250905600a165627a7a723058209a23a54756c3f9b6aa2467550df90cfb20b87dabf37ebd63466c895cc40328cd0029",
  "source": "pragma solidity ^0.4.19;\n\ncontract MyCoin {\n  string public name;\n  string public symbol;\n  uint8 public decimal;\n  uint256 public totalSupply;\n\n  /**\n  * this mapping equates to:\n  * balance: { publicWalletAddress: balanceValue }\n  */\n  mapping(address => uint256) public balance;\n\n  function MyCoin(\n      string coinName,\n      string sym,\n      uint8 decimalPoint,\n      uint256 initSupply\n    ) public {\n      name = coinName;\n      symbol = sym;\n      decimal = decimalPoint;\n      totalSupply = initSupply;\n\n      balance[msg.sender] = initSupply;\n    }\n\n    function transfer(address _to, uint256 _value) public {\n      if(_to == address(0x0)) revert();\n      if(balance[msg.sender] < _value) revert();\n\n      balance[msg.sender] -= _value;\n      balance[_to] += _value;\n\n      //  Transfer(msg.sender, _to, _value);\n    }\n\n    function burn(uint256 _value) public returns (bool) {\n      if(balance[msg.sender] < _value) revert();\n\n      balance[msg.sender] -= _value;\n      totalSupply -= _value;\n\n      //  Burn(msg.sender, _value);\n    }\n\n    function checkBalance() public view returns (uint256) {\n      return balance[msg.sender];\n    }\n\n    function currencyDetails() public view returns (\n        string coinName,\n        string sym,\n        uint8 decimalPoint,\n        uint256 totSupply\n      ) {\n        coinName = name;\n        sym = symbol;\n        decimalPoint = decimal;\n        totSupply = totalSupply;\n      }\n}\n",
  "sourcePath": "/home/dynat/projects/crypto-dev/contracts/MyCoin.sol",
  "compiler": {
    "name": "solc",
    "version": "0.4.19+commit.c4cbbb05.Emscripten.clang"
  },
  "schemaVersion": "1.0.1",
  "updatedAt": "2018-02-04T10:53:28.423Z"
}